{
  "_format": "hh-sol-artifact-1",
  "contractName": "HealthInsurance",
  "sourceName": "contracts/HealthInsurance.sol",
  "abi": [
    {
      "anonymous": false,
      "inputs": [
        {
          "indexed": true,
          "internalType": "uint256",
          "name": "claimId",
          "type": "uint256"
        },
        {
          "indexed": false,
          "internalType": "enum HealthInsurance.ClaimStatus",
          "name": "status",
          "type": "uint8"
        }
      ],
      "name": "ClaimProcessed",
      "type": "event"
    },
    {
      "anonymous": false,
      "inputs": [
        {
          "indexed": true,
          "internalType": "address",
          "name": "policyholder",
          "type": "address"
        },
        {
          "indexed": true,
          "internalType": "uint256",
          "name": "claimId",
          "type": "uint256"
        },
        {
          "indexed": false,
          "internalType": "uint256",
          "name": "claimAmount",
          "type": "uint256"
        }
      ],
      "name": "ClaimSubmitted",
      "type": "event"
    },
    {
      "anonymous": false,
      "inputs": [
        {
          "indexed": true,
          "internalType": "address",
          "name": "previousOwner",
          "type": "address"
        },
        {
          "indexed": true,
          "internalType": "address",
          "name": "newOwner",
          "type": "address"
        }
      ],
      "name": "OwnershipTransferred",
      "type": "event"
    },
    {
      "anonymous": false,
      "inputs": [
        {
          "indexed": true,
          "internalType": "address",
          "name": "policyholder",
          "type": "address"
        },
        {
          "indexed": true,
          "internalType": "uint256",
          "name": "policyId",
          "type": "uint256"
        },
        {
          "indexed": false,
          "internalType": "uint256",
          "name": "coverageAmount",
          "type": "uint256"
        },
        {
          "indexed": false,
          "internalType": "uint256",
          "name": "premium",
          "type": "uint256"
        }
      ],
      "name": "PolicyPurchased",
      "type": "event"
    },
    {
      "stateMutability": "payable",
      "type": "fallback"
    },
    {
      "inputs": [],
      "name": "MAX_COVERAGE",
      "outputs": [
        {
          "internalType": "uint256",
          "name": "",
          "type": "uint256"
        }
      ],
      "stateMutability": "view",
      "type": "function"
    },
    {
      "inputs": [],
      "name": "MAX_PREMIUM_PERCENTAGE",
      "outputs": [
        {
          "internalType": "uint256",
          "name": "",
          "type": "uint256"
        }
      ],
      "stateMutability": "view",
      "type": "function"
    },
    {
      "inputs": [],
      "name": "MIN_COVERAGE",
      "outputs": [
        {
          "internalType": "uint256",
          "name": "",
          "type": "uint256"
        }
      ],
      "stateMutability": "view",
      "type": "function"
    },
    {
      "inputs": [],
      "name": "MIN_PREMIUM_PERCENTAGE",
      "outputs": [
        {
          "internalType": "uint256",
          "name": "",
          "type": "uint256"
        }
      ],
      "stateMutability": "view",
      "type": "function"
    },
    {
      "inputs": [],
      "name": "claimCounter",
      "outputs": [
        {
          "internalType": "uint256",
          "name": "",
          "type": "uint256"
        }
      ],
      "stateMutability": "view",
      "type": "function"
    },
    {
      "inputs": [
        {
          "internalType": "uint256",
          "name": "",
          "type": "uint256"
        }
      ],
      "name": "claims",
      "outputs": [
        {
          "internalType": "uint256",
          "name": "id",
          "type": "uint256"
        },
        {
          "internalType": "uint256",
          "name": "policyId",
          "type": "uint256"
        },
        {
          "internalType": "uint256",
          "name": "claimAmount",
          "type": "uint256"
        },
        {
          "internalType": "uint256",
          "name": "submissionDate",
          "type": "uint256"
        },
        {
          "internalType": "enum HealthInsurance.ClaimStatus",
          "name": "status",
          "type": "uint8"
        },
        {
          "internalType": "string",
          "name": "medicalDocuments",
          "type": "string"
        },
        {
          "internalType": "address",
          "name": "claimant",
          "type": "address"
        }
      ],
      "stateMutability": "view",
      "type": "function"
    },
    {
      "inputs": [
        {
          "internalType": "uint256",
          "name": "claimId",
          "type": "uint256"
        }
      ],
      "name": "getClaimDetails",
      "outputs": [
        {
          "components": [
            {
              "internalType": "uint256",
              "name": "id",
              "type": "uint256"
            },
            {
              "internalType": "uint256",
              "name": "policyId",
              "type": "uint256"
            },
            {
              "internalType": "uint256",
              "name": "claimAmount",
              "type": "uint256"
            },
            {
              "internalType": "uint256",
              "name": "submissionDate",
              "type": "uint256"
            },
            {
              "internalType": "enum HealthInsurance.ClaimStatus",
              "name": "status",
              "type": "uint8"
            },
            {
              "internalType": "string",
              "name": "medicalDocuments",
              "type": "string"
            },
            {
              "internalType": "address",
              "name": "claimant",
              "type": "address"
            }
          ],
          "internalType": "struct HealthInsurance.Claim",
          "name": "",
          "type": "tuple"
        }
      ],
      "stateMutability": "view",
      "type": "function"
    },
    {
      "inputs": [
        {
          "internalType": "uint256",
          "name": "policyId",
          "type": "uint256"
        }
      ],
      "name": "getPolicyDetails",
      "outputs": [
        {
          "components": [
            {
              "internalType": "uint256",
              "name": "id",
              "type": "uint256"
            },
            {
              "internalType": "address",
              "name": "policyholder",
              "type": "address"
            },
            {
              "internalType": "uint256",
              "name": "coverageAmount",
              "type": "uint256"
            },
            {
              "internalType": "uint256",
              "name": "premium",
              "type": "uint256"
            },
            {
              "internalType": "uint256",
              "name": "startDate",
              "type": "uint256"
            },
            {
              "internalType": "uint256",
              "name": "endDate",
              "type": "uint256"
            },
            {
              "internalType": "bool",
              "name": "isActive",
              "type": "bool"
            }
          ],
          "internalType": "struct HealthInsurance.Policy",
          "name": "",
          "type": "tuple"
        }
      ],
      "stateMutability": "view",
      "type": "function"
    },
    {
      "inputs": [
        {
          "internalType": "address",
          "name": "user",
          "type": "address"
        }
      ],
      "name": "getUserClaims",
      "outputs": [
        {
          "internalType": "uint256[]",
          "name": "",
          "type": "uint256[]"
        }
      ],
      "stateMutability": "view",
      "type": "function"
    },
    {
      "inputs": [
        {
          "internalType": "address",
          "name": "user",
          "type": "address"
        }
      ],
      "name": "getUserPolicies",
      "outputs": [
        {
          "components": [
            {
              "internalType": "uint256",
              "name": "id",
              "type": "uint256"
            },
            {
              "internalType": "address",
              "name": "policyholder",
              "type": "address"
            },
            {
              "internalType": "uint256",
              "name": "coverageAmount",
              "type": "uint256"
            },
            {
              "internalType": "uint256",
              "name": "premium",
              "type": "uint256"
            },
            {
              "internalType": "uint256",
              "name": "startDate",
              "type": "uint256"
            },
            {
              "internalType": "uint256",
              "name": "endDate",
              "type": "uint256"
            },
            {
              "internalType": "bool",
              "name": "isActive",
              "type": "bool"
            }
          ],
          "internalType": "struct HealthInsurance.Policy[]",
          "name": "",
          "type": "tuple[]"
        }
      ],
      "stateMutability": "view",
      "type": "function"
    },
    {
      "inputs": [],
      "name": "owner",
      "outputs": [
        {
          "internalType": "address",
          "name": "",
          "type": "address"
        }
      ],
      "stateMutability": "view",
      "type": "function"
    },
    {
      "inputs": [
        {
          "internalType": "uint256",
          "name": "",
          "type": "uint256"
        }
      ],
      "name": "policies",
      "outputs": [
        {
          "internalType": "uint256",
          "name": "id",
          "type": "uint256"
        },
        {
          "internalType": "address",
          "name": "policyholder",
          "type": "address"
        },
        {
          "internalType": "uint256",
          "name": "coverageAmount",
          "type": "uint256"
        },
        {
          "internalType": "uint256",
          "name": "premium",
          "type": "uint256"
        },
        {
          "internalType": "uint256",
          "name": "startDate",
          "type": "uint256"
        },
        {
          "internalType": "uint256",
          "name": "endDate",
          "type": "uint256"
        },
        {
          "internalType": "bool",
          "name": "isActive",
          "type": "bool"
        }
      ],
      "stateMutability": "view",
      "type": "function"
    },
    {
      "inputs": [],
      "name": "policyCounter",
      "outputs": [
        {
          "internalType": "uint256",
          "name": "",
          "type": "uint256"
        }
      ],
      "stateMutability": "view",
      "type": "function"
    },
    {
      "inputs": [
        {
          "internalType": "uint256[]",
          "name": "claimIds",
          "type": "uint256[]"
        },
        {
          "internalType": "bool[]",
          "name": "approvalStatuses",
          "type": "bool[]"
        }
      ],
      "name": "processBatchClaims",
      "outputs": [],
      "stateMutability": "nonpayable",
      "type": "function"
    },
    {
      "inputs": [
        {
          "internalType": "uint256",
          "name": "claimId",
          "type": "uint256"
        },
        {
          "internalType": "bool",
          "name": "approve",
          "type": "bool"
        }
      ],
      "name": "processClaim",
      "outputs": [],
      "stateMutability": "nonpayable",
      "type": "function"
    },
    {
      "inputs": [
        {
          "internalType": "uint256",
          "name": "coverageAmount",
          "type": "uint256"
        }
      ],
      "name": "purchasePolicy",
      "outputs": [],
      "stateMutability": "payable",
      "type": "function"
    },
    {
      "inputs": [],
      "name": "renounceOwnership",
      "outputs": [],
      "stateMutability": "nonpayable",
      "type": "function"
    },
    {
      "inputs": [
        {
          "internalType": "uint256",
          "name": "policyId",
          "type": "uint256"
        },
        {
          "internalType": "uint256",
          "name": "claimAmount",
          "type": "uint256"
        },
        {
          "internalType": "string",
          "name": "medicalDocuments",
          "type": "string"
        }
      ],
      "name": "submitClaim",
      "outputs": [],
      "stateMutability": "nonpayable",
      "type": "function"
    },
    {
      "inputs": [
        {
          "internalType": "address",
          "name": "newOwner",
          "type": "address"
        }
      ],
      "name": "transferOwnership",
      "outputs": [],
      "stateMutability": "nonpayable",
      "type": "function"
    },
    {
      "inputs": [
        {
          "internalType": "address",
          "name": "",
          "type": "address"
        },
        {
          "internalType": "uint256",
          "name": "",
          "type": "uint256"
        }
      ],
      "name": "userClaims",
      "outputs": [
        {
          "internalType": "uint256",
          "name": "",
          "type": "uint256"
        }
      ],
      "stateMutability": "view",
      "type": "function"
    },
    {
      "inputs": [
        {
          "internalType": "address",
          "name": "",
          "type": "address"
        },
        {
          "internalType": "uint256",
          "name": "",
          "type": "uint256"
        }
      ],
      "name": "userPolicies",
      "outputs": [
        {
          "internalType": "uint256",
          "name": "id",
          "type": "uint256"
        },
        {
          "internalType": "address",
          "name": "policyholder",
          "type": "address"
        },
        {
          "internalType": "uint256",
          "name": "coverageAmount",
          "type": "uint256"
        },
        {
          "internalType": "uint256",
          "name": "premium",
          "type": "uint256"
        },
        {
          "internalType": "uint256",
          "name": "startDate",
          "type": "uint256"
        },
        {
          "internalType": "uint256",
          "name": "endDate",
          "type": "uint256"
        },
        {
          "internalType": "bool",
          "name": "isActive",
          "type": "bool"
        }
      ],
      "stateMutability": "view",
      "type": "function"
    },
    {
      "inputs": [],
      "name": "withdraw",
      "outputs": [],
      "stateMutability": "nonpayable",
      "type": "function"
    },
    {
      "stateMutability": "payable",
      "type": "receive"
    }
  ],
  "bytecode": "0x60806040523480156200001157600080fd5b5062000032620000266200003f60201b60201c565b6200004760201b60201c565b600180819055506200010b565b600033905090565b60008060009054906101000a900473ffffffffffffffffffffffffffffffffffffffff169050816000806101000a81548173ffffffffffffffffffffffffffffffffffffffff021916908373ffffffffffffffffffffffffffffffffffffffff1602179055508173ffffffffffffffffffffffffffffffffffffffff168173ffffffffffffffffffffffffffffffffffffffff167f8be0079c531659141344cd1fd0a4f28419497f9722a3daafe3b4186f6b6457e060405160405180910390a35050565b613178806200011b6000396000f3fe6080604052600436106101395760003560e01c80637bcb4a64116100ab578063c1260c9a1161006f578063c1260c9a1461042a578063ca9748ea14610446578063cc03801014610483578063d3e89483146104c0578063d52c1bea14610503578063f2fde38b1461052e57610140565b80637bcb4a64146103175780638da5cb5b146103545780639efa0aa91461037f578063a888c2cd146103aa578063bac71e00146103ed57610140565b80633d36adc5116100fd5780633d36adc5146102135780634b930487146102565780634efa8f17146102815780635eff1735146102ac578063617e44d5146102d7578063715018a61461030057610140565b806306964de71461014257806319ac46141461016b5780632925993d146101a857806335446def146101d35780633ccfd60b146101fc57610140565b3661014057005b005b34801561014e57600080fd5b5061016960048036038101906101649190612187565b610557565b005b34801561017757600080fd5b50610192600480360381019061018d9190612035565b6108fe565b60405161019f91906126fd565b60405180910390f35b3480156101b457600080fd5b506101bd610a3f565b6040516101ca91906128d9565b60405180910390f35b3480156101df57600080fd5b506101fa60048036038101906101f59190612147565b610a4b565b005b34801561020857600080fd5b50610211610cea565b005b34801561021f57600080fd5b5061023a60048036038101906102359190612062565b610db6565b60405161024d97969594939291906128f4565b60405180910390f35b34801561026257600080fd5b5061026b610e42565b60405161027891906128d9565b60405180910390f35b34801561028d57600080fd5b50610296610e47565b6040516102a391906128d9565b60405180910390f35b3480156102b857600080fd5b506102c1610e4d565b6040516102ce91906128d9565b60405180910390f35b3480156102e357600080fd5b506102fe60048036038101906102f991906120a2565b610e52565b005b34801561030c57600080fd5b506103156111a3565b005b34801561032357600080fd5b5061033e60048036038101906103399190612035565b61122b565b60405161034b919061271f565b60405180910390f35b34801561036057600080fd5b506103696112c2565b60405161037691906126e2565b60405180910390f35b34801561038b57600080fd5b506103946112eb565b6040516103a191906128d9565b60405180910390f35b3480156103b657600080fd5b506103d160048036038101906103cc919061211a565b6112f9565b6040516103e4979695949392919061298c565b60405180910390f35b3480156103f957600080fd5b50610414600480360381019061040f919061211a565b6113f0565b604051610421919061289c565b60405180910390f35b610444600480360381019061043f919061211a565b611568565b005b34801561045257600080fd5b5061046d60048036038101906104689190612062565b611952565b60405161047a91906128d9565b60405180910390f35b34801561048f57600080fd5b506104aa60048036038101906104a5919061211a565b611983565b6040516104b791906128be565b60405180910390f35b3480156104cc57600080fd5b506104e760048036038101906104e2919061211a565b611a53565b6040516104fa97969594939291906128f4565b60405180910390f35b34801561050f57600080fd5b50610518611ac2565b60405161052591906128d9565b60405180910390f35b34801561053a57600080fd5b5061055560048036038101906105509190612035565b611ac8565b005b6002600154141561059d576040517f08c379a00000000000000000000000000000000000000000000000000000000081526004016105949061287c565b60405180910390fd5b600260018190555060006003600085815260200190815260200160002090503373ffffffffffffffffffffffffffffffffffffffff168160010160009054906101000a900473ffffffffffffffffffffffffffffffffffffffff1673ffffffffffffffffffffffffffffffffffffffff161461064e576040517f08c379a00000000000000000000000000000000000000000000000000000000081526004016106459061275c565b60405180910390fd5b8060060160009054906101000a900460ff1661069f576040517f08c379a00000000000000000000000000000000000000000000000000000000081526004016106969061281c565b60405180910390fd5b80600201548311156106e6576040517f08c379a00000000000000000000000000000000000000000000000000000000081526004016106dd9061285c565b60405180910390fd5b60006040518060e0016040528060075481526020018681526020018581526020014281526020016000600281111561072157610720612e1d565b5b81526020018481526020013373ffffffffffffffffffffffffffffffffffffffff168152509050806004600060075481526020019081526020016000206000820151816000015560208201518160010155604082015181600201556060820151816003015560808201518160040160006101000a81548160ff021916908360028111156107b1576107b0612e1d565b5b021790555060a08201518160050190805190602001906107d2929190611ced565b5060c08201518160060160006101000a81548173ffffffffffffffffffffffffffffffffffffffff021916908373ffffffffffffffffffffffffffffffffffffffff160217905550905050600560003373ffffffffffffffffffffffffffffffffffffffff1673ffffffffffffffffffffffffffffffffffffffff16815260200190815260200160002060075490806001815401808255809150506001900390600052602060002001600090919091909150556007600081548092919061089890612d76565b919050555080600001513373ffffffffffffffffffffffffffffffffffffffff167ffe6542b2c812f9d65d4ea6f1d81bcd2e556c05bf33b6697ab14179aa484cfcc2866040516108e891906128d9565b60405180910390a3505060018081905550505050565b6060600260008373ffffffffffffffffffffffffffffffffffffffff1673ffffffffffffffffffffffffffffffffffffffff168152602001908152602001600020805480602002602001604051908101604052809291908181526020016000905b82821015610a3457838290600052602060002090600702016040518060e0016040529081600082015481526020016001820160009054906101000a900473ffffffffffffffffffffffffffffffffffffffff1673ffffffffffffffffffffffffffffffffffffffff1673ffffffffffffffffffffffffffffffffffffffff168152602001600282015481526020016003820154815260200160048201548152602001600582015481526020016006820160009054906101000a900460ff1615151515815250508152602001906001019061095f565b505050509050919050565b670de0b6b3a764000081565b610a53611bc0565b73ffffffffffffffffffffffffffffffffffffffff16610a716112c2565b73ffffffffffffffffffffffffffffffffffffffff1614610ac7576040517f08c379a0000000000000000000000000000000000000000000000000000000008152600401610abe9061283c565b60405180910390fd5b60026001541415610b0d576040517f08c379a0000000000000000000000000000000000000000000000000000000008152600401610b049061287c565b60405180910390fd5b6002600181905550600060046000848152602001908152602001600020905060006003600083600101548152602001908152602001600020905060006002811115610b5b57610b5a612e1d565b5b8260040160009054906101000a900460ff166002811115610b7f57610b7e612e1d565b5b14610bbf576040517f08c379a0000000000000000000000000000000000000000000000000000000008152600401610bb6906127bc565b60405180910390fd5b8215610c665760018260040160006101000a81548160ff02191690836002811115610bed57610bec612e1d565b5b02179055508060010160009054906101000a900473ffffffffffffffffffffffffffffffffffffffff1673ffffffffffffffffffffffffffffffffffffffff166108fc83600201549081150290604051600060405180830381858888f19350505050158015610c60573d6000803e3d6000fd5b50610c94565b60028260040160006101000a81548160ff02191690836002811115610c8e57610c8d612e1d565b5b02179055505b837f71b2546244a774fd0b97d37ceaac0b5f5fc83f468abb1877f67fcfca93a20c408360040160009054906101000a900460ff16604051610cd59190612741565b60405180910390a25050600180819055505050565b610cf2611bc0565b73ffffffffffffffffffffffffffffffffffffffff16610d106112c2565b73ffffffffffffffffffffffffffffffffffffffff1614610d66576040517f08c379a0000000000000000000000000000000000000000000000000000000008152600401610d5d9061283c565b60405180910390fd5b610d6e6112c2565b73ffffffffffffffffffffffffffffffffffffffff166108fc479081150290604051600060405180830381858888f19350505050158015610db3573d6000803e3d6000fd5b50565b60026020528160005260406000208181548110610dd257600080fd5b9060005260206000209060070201600091509150508060000154908060010160009054906101000a900473ffffffffffffffffffffffffffffffffffffffff16908060020154908060030154908060040154908060050154908060060160009054906101000a900460ff16905087565b600181565b60075481565b601481565b610e5a611bc0565b73ffffffffffffffffffffffffffffffffffffffff16610e786112c2565b73ffffffffffffffffffffffffffffffffffffffff1614610ece576040517f08c379a0000000000000000000000000000000000000000000000000000000008152600401610ec59061283c565b60405180910390fd5b60026001541415610f14576040517f08c379a0000000000000000000000000000000000000000000000000000000008152600401610f0b9061287c565b60405180910390fd5b60026001819055508051825114610f60576040517f08c379a0000000000000000000000000000000000000000000000000000000008152600401610f57906127dc565b60405180910390fd5b60005b825181101561119757600060046000858481518110610f8557610f84612e7b565b5b60200260200101518152602001908152602001600020905060006003600083600101548152602001908152602001600020905060006002811115610fcc57610fcb612e1d565b5b8260040160009054906101000a900460ff166002811115610ff057610fef612e1d565b5b14611030576040517f08c379a0000000000000000000000000000000000000000000000000000000008152600401611027906127bc565b60405180910390fd5b83838151811061104357611042612e7b565b5b6020026020010151156110f15760018260040160006101000a81548160ff0219169083600281111561107857611077612e1d565b5b02179055508060010160009054906101000a900473ffffffffffffffffffffffffffffffffffffffff1673ffffffffffffffffffffffffffffffffffffffff166108fc83600201549081150290604051600060405180830381858888f193505050501580156110eb573d6000803e3d6000fd5b5061111f565b60028260040160006101000a81548160ff0219169083600281111561111957611118612e1d565b5b02179055505b84838151811061113257611131612e7b565b5b60200260200101517f71b2546244a774fd0b97d37ceaac0b5f5fc83f468abb1877f67fcfca93a20c408360040160009054906101000a900460ff1660405161117a9190612741565b60405180910390a25050808061118f90612d76565b915050610f63565b50600180819055505050565b6111ab611bc0565b73ffffffffffffffffffffffffffffffffffffffff166111c96112c2565b73ffffffffffffffffffffffffffffffffffffffff161461121f576040517f08c379a00000000000000000000000000000000000000000000000000000000081526004016112169061283c565b60405180910390fd5b6112296000611bc8565b565b6060600560008373ffffffffffffffffffffffffffffffffffffffff1673ffffffffffffffffffffffffffffffffffffffff1681526020019081526020016000208054806020026020016040519081016040528092919081815260200182805480156112b657602002820191906000526020600020905b8154815260200190600101908083116112a2575b50505050509050919050565b60008060009054906101000a900473ffffffffffffffffffffffffffffffffffffffff16905090565b69d3c21bcecceda100000081565b60046020528060005260406000206000915090508060000154908060010154908060020154908060030154908060040160009054906101000a900460ff169080600501805461134790612d13565b80601f016020809104026020016040519081016040528092919081815260200182805461137390612d13565b80156113c05780601f10611395576101008083540402835291602001916113c0565b820191906000526020600020905b8154815290600101906020018083116113a357829003601f168201915b5050505050908060060160009054906101000a900473ffffffffffffffffffffffffffffffffffffffff16905087565b6113f8611d73565b600460008381526020019081526020016000206040518060e0016040529081600082015481526020016001820154815260200160028201548152602001600382015481526020016004820160009054906101000a900460ff16600281111561146357611462612e1d565b5b600281111561147557611474612e1d565b5b815260200160058201805461148990612d13565b80601f01602080910402602001604051908101604052809291908181526020018280546114b590612d13565b80156115025780601f106114d757610100808354040283529160200191611502565b820191906000526020600020905b8154815290600101906020018083116114e557829003601f168201915b505050505081526020016006820160009054906101000a900473ffffffffffffffffffffffffffffffffffffffff1673ffffffffffffffffffffffffffffffffffffffff1673ffffffffffffffffffffffffffffffffffffffff16815250509050919050565b600260015414156115ae576040517f08c379a00000000000000000000000000000000000000000000000000000000081526004016115a59061287c565b60405180910390fd5b6002600181905550670de0b6b3a764000081101580156115d8575069d3c21bcecceda10000008111155b611617576040517f08c379a000000000000000000000000000000000000000000000000000000000815260040161160e9061277c565b60405180910390fd5b600061162282611c8c565b905080341015611667576040517f08c379a000000000000000000000000000000000000000000000000000000000815260040161165e906127fc565b60405180910390fd5b60006040518060e0016040528060065481526020013373ffffffffffffffffffffffffffffffffffffffff1681526020018481526020018381526020014281526020016301e13380426116ba9190612b4f565b8152602001600115158152509050600260003373ffffffffffffffffffffffffffffffffffffffff1673ffffffffffffffffffffffffffffffffffffffff1681526020019081526020016000208190806001815401808255809150506001900390600052602060002090600702016000909190919091506000820151816000015560208201518160010160006101000a81548173ffffffffffffffffffffffffffffffffffffffff021916908373ffffffffffffffffffffffffffffffffffffffff16021790555060408201518160020155606082015181600301556080820151816004015560a0820151816005015560c08201518160060160006101000a81548160ff0219169083151502179055505050806003600060065481526020019081526020016000206000820151816000015560208201518160010160006101000a81548173ffffffffffffffffffffffffffffffffffffffff021916908373ffffffffffffffffffffffffffffffffffffffff16021790555060408201518160020155606082015181600301556080820151816004015560a0820151816005015560c08201518160060160006101000a81548160ff0219169083151502179055509050506006600081548092919061189190612d76565b919050555080600001513373ffffffffffffffffffffffffffffffffffffffff167f8b8961810a39fd56d36e421278c7737795a230b372ac246eb46d37eae370db5f85856040516118e3929190612963565b60405180910390a381341115611946573373ffffffffffffffffffffffffffffffffffffffff166108fc83346119199190612c30565b9081150290604051600060405180830381858888f19350505050158015611944573d6000803e3d6000fd5b505b50506001808190555050565b6005602052816000526040600020818154811061196e57600080fd5b90600052602060002001600091509150505481565b61198b611dd8565b600360008381526020019081526020016000206040518060e0016040529081600082015481526020016001820160009054906101000a900473ffffffffffffffffffffffffffffffffffffffff1673ffffffffffffffffffffffffffffffffffffffff1673ffffffffffffffffffffffffffffffffffffffff168152602001600282015481526020016003820154815260200160048201548152602001600582015481526020016006820160009054906101000a900460ff1615151515815250509050919050565b60036020528060005260406000206000915090508060000154908060010160009054906101000a900473ffffffffffffffffffffffffffffffffffffffff16908060020154908060030154908060040154908060050154908060060160009054906101000a900460ff16905087565b60065481565b611ad0611bc0565b73ffffffffffffffffffffffffffffffffffffffff16611aee6112c2565b73ffffffffffffffffffffffffffffffffffffffff1614611b44576040517f08c379a0000000000000000000000000000000000000000000000000000000008152600401611b3b9061283c565b60405180910390fd5b600073ffffffffffffffffffffffffffffffffffffffff168173ffffffffffffffffffffffffffffffffffffffff161415611bb4576040517f08c379a0000000000000000000000000000000000000000000000000000000008152600401611bab9061279c565b60405180910390fd5b611bbd81611bc8565b50565b600033905090565b60008060009054906101000a900473ffffffffffffffffffffffffffffffffffffffff169050816000806101000a81548173ffffffffffffffffffffffffffffffffffffffff021916908373ffffffffffffffffffffffffffffffffffffffff1602179055508173ffffffffffffffffffffffffffffffffffffffff168173ffffffffffffffffffffffffffffffffffffffff167f8be0079c531659141344cd1fd0a4f28419497f9722a3daafe3b4186f6b6457e060405160405180910390a35050565b60008069d3c21bcecceda100000060016014611ca89190612c30565b84611cb39190612bd6565b611cbd9190612ba5565b6001611cc99190612b4f565b9050620f42408184611cdb9190612bd6565b611ce59190612ba5565b915050919050565b828054611cf990612d13565b90600052602060002090601f016020900481019282611d1b5760008555611d62565b82601f10611d3457805160ff1916838001178555611d62565b82800160010185558215611d62579182015b82811115611d61578251825591602001919060010190611d46565b5b509050611d6f9190611e2d565b5090565b6040518060e001604052806000815260200160008152602001600081526020016000815260200160006002811115611dae57611dad612e1d565b5b815260200160608152602001600073ffffffffffffffffffffffffffffffffffffffff1681525090565b6040518060e0016040528060008152602001600073ffffffffffffffffffffffffffffffffffffffff168152602001600081526020016000815260200160008152602001600081526020016000151581525090565b5b80821115611e46576000816000905550600101611e2e565b5090565b6000611e5d611e5884612a27565b612a02565b90508083825260208201905082856020860282011115611e8057611e7f612ede565b5b60005b85811015611eb05781611e968882611fdd565b845260208401935060208301925050600181019050611e83565b5050509392505050565b6000611ecd611ec884612a53565b612a02565b90508083825260208201905082856020860282011115611ef057611eef612ede565b5b60005b85811015611f205781611f068882612020565b845260208401935060208301925050600181019050611ef3565b5050509392505050565b6000611f3d611f3884612a7f565b612a02565b905082815260208101848484011115611f5957611f58612ee3565b5b611f64848285612cd1565b509392505050565b600081359050611f7b816130fd565b92915050565b600082601f830112611f9657611f95612ed9565b5b8135611fa6848260208601611e4a565b91505092915050565b600082601f830112611fc457611fc3612ed9565b5b8135611fd4848260208601611eba565b91505092915050565b600081359050611fec81613114565b92915050565b600082601f83011261200757612006612ed9565b5b8135612017848260208601611f2a565b91505092915050565b60008135905061202f8161312b565b92915050565b60006020828403121561204b5761204a612eed565b5b600061205984828501611f6c565b91505092915050565b6000806040838503121561207957612078612eed565b5b600061208785828601611f6c565b925050602061209885828601612020565b9150509250929050565b600080604083850312156120b9576120b8612eed565b5b600083013567ffffffffffffffff8111156120d7576120d6612ee8565b5b6120e385828601611faf565b925050602083013567ffffffffffffffff81111561210457612103612ee8565b5b61211085828601611f81565b9150509250929050565b6000602082840312156121305761212f612eed565b5b600061213e84828501612020565b91505092915050565b6000806040838503121561215e5761215d612eed565b5b600061216c85828601612020565b925050602061217d85828601611fdd565b9150509250929050565b6000806000606084860312156121a05761219f612eed565b5b60006121ae86828701612020565b93505060206121bf86828701612020565b925050604084013567ffffffffffffffff8111156121e0576121df612ee8565b5b6121ec86828701611ff2565b9150509250925092565b600061220283836125a8565b60e08301905092915050565b600061221a83836126c4565b60208301905092915050565b61222f81612c64565b82525050565b61223e81612c64565b82525050565b600061224f82612ad0565b6122598185612b0b565b935061226483612ab0565b8060005b8381101561229557815161227c88826121f6565b975061228783612af1565b925050600181019050612268565b5085935050505092915050565b60006122ad82612adb565b6122b78185612b1c565b93506122c283612ac0565b8060005b838110156122f35781516122da888261220e565b97506122e583612afe565b9250506001810190506122c6565b5085935050505092915050565b61230981612c76565b82525050565b61231881612c76565b82525050565b61232781612cbf565b82525050565b61233681612cbf565b82525050565b600061234782612ae6565b6123518185612b2d565b9350612361818560208601612ce0565b61236a81612ef2565b840191505092915050565b600061238082612ae6565b61238a8185612b3e565b935061239a818560208601612ce0565b6123a381612ef2565b840191505092915050565b60006123bb601583612b3e565b91506123c682612f03565b602082019050919050565b60006123de601783612b3e565b91506123e982612f2c565b602082019050919050565b6000612401602683612b3e565b915061240c82612f55565b604082019050919050565b6000612424601783612b3e565b915061242f82612fa4565b602082019050919050565b6000612447602783612b3e565b915061245282612fcd565b604082019050919050565b600061246a601c83612b3e565b91506124758261301c565b602082019050919050565b600061248d601483612b3e565b915061249882613045565b602082019050919050565b60006124b0602083612b3e565b91506124bb8261306e565b602082019050919050565b60006124d3601d83612b3e565b91506124de82613097565b602082019050919050565b60006124f6601f83612b3e565b9150612501826130c0565b602082019050919050565b600060e08301600083015161252460008601826126c4565b50602083015161253760208601826126c4565b50604083015161254a60408601826126c4565b50606083015161255d60608601826126c4565b506080830151612570608086018261231e565b5060a083015184820360a0860152612588828261233c565b91505060c083015161259d60c0860182612226565b508091505092915050565b60e0820160008201516125be60008501826126c4565b5060208201516125d16020850182612226565b5060408201516125e460408501826126c4565b5060608201516125f760608501826126c4565b50608082015161260a60808501826126c4565b5060a082015161261d60a08501826126c4565b5060c082015161263060c0850182612300565b50505050565b60e08201600082015161264c60008501826126c4565b50602082015161265f6020850182612226565b50604082015161267260408501826126c4565b50606082015161268560608501826126c4565b50608082015161269860808501826126c4565b5060a08201516126ab60a08501826126c4565b5060c08201516126be60c0850182612300565b50505050565b6126cd81612cb5565b82525050565b6126dc81612cb5565b82525050565b60006020820190506126f76000830184612235565b92915050565b600060208201905081810360008301526127178184612244565b905092915050565b6000602082019050818103600083015261273981846122a2565b905092915050565b6000602082019050612756600083018461232d565b92915050565b60006020820190508181036000830152612775816123ae565b9050919050565b60006020820190508181036000830152612795816123d1565b9050919050565b600060208201905081810360008301526127b5816123f4565b9050919050565b600060208201905081810360008301526127d581612417565b9050919050565b600060208201905081810360008301526127f58161243a565b9050919050565b600060208201905081810360008301526128158161245d565b9050919050565b6000602082019050818103600083015261283581612480565b9050919050565b60006020820190508181036000830152612855816124a3565b9050919050565b60006020820190508181036000830152612875816124c6565b9050919050565b60006020820190508181036000830152612895816124e9565b9050919050565b600060208201905081810360008301526128b6818461250c565b905092915050565b600060e0820190506128d36000830184612636565b92915050565b60006020820190506128ee60008301846126d3565b92915050565b600060e082019050612909600083018a6126d3565b6129166020830189612235565b61292360408301886126d3565b61293060608301876126d3565b61293d60808301866126d3565b61294a60a08301856126d3565b61295760c083018461230f565b98975050505050505050565b600060408201905061297860008301856126d3565b61298560208301846126d3565b9392505050565b600060e0820190506129a1600083018a6126d3565b6129ae60208301896126d3565b6129bb60408301886126d3565b6129c860608301876126d3565b6129d5608083018661232d565b81810360a08301526129e78185612375565b90506129f660c0830184612235565b98975050505050505050565b6000612a0c612a1d565b9050612a188282612d45565b919050565b6000604051905090565b600067ffffffffffffffff821115612a4257612a41612eaa565b5b602082029050602081019050919050565b600067ffffffffffffffff821115612a6e57612a6d612eaa565b5b602082029050602081019050919050565b600067ffffffffffffffff821115612a9a57612a99612eaa565b5b612aa382612ef2565b9050602081019050919050565b6000819050602082019050919050565b6000819050602082019050919050565b600081519050919050565b600081519050919050565b600081519050919050565b6000602082019050919050565b6000602082019050919050565b600082825260208201905092915050565b600082825260208201905092915050565b600082825260208201905092915050565b600082825260208201905092915050565b6000612b5a82612cb5565b9150612b6583612cb5565b9250827fffffffffffffffffffffffffffffffffffffffffffffffffffffffffffffffff03821115612b9a57612b99612dbf565b5b828201905092915050565b6000612bb082612cb5565b9150612bbb83612cb5565b925082612bcb57612bca612dee565b5b828204905092915050565b6000612be182612cb5565b9150612bec83612cb5565b9250817fffffffffffffffffffffffffffffffffffffffffffffffffffffffffffffffff0483118215151615612c2557612c24612dbf565b5b828202905092915050565b6000612c3b82612cb5565b9150612c4683612cb5565b925082821015612c5957612c58612dbf565b5b828203905092915050565b6000612c6f82612c95565b9050919050565b60008115159050919050565b6000819050612c90826130e9565b919050565b600073ffffffffffffffffffffffffffffffffffffffff82169050919050565b6000819050919050565b6000612cca82612c82565b9050919050565b82818337600083830152505050565b60005b83811015612cfe578082015181840152602081019050612ce3565b83811115612d0d576000848401525b50505050565b60006002820490506001821680612d2b57607f821691505b60208210811415612d3f57612d3e612e4c565b5b50919050565b612d4e82612ef2565b810181811067ffffffffffffffff82111715612d6d57612d6c612eaa565b5b80604052505050565b6000612d8182612cb5565b91507fffffffffffffffffffffffffffffffffffffffffffffffffffffffffffffffff821415612db457612db3612dbf565b5b600182019050919050565b7f4e487b7100000000000000000000000000000000000000000000000000000000600052601160045260246000fd5b7f4e487b7100000000000000000000000000000000000000000000000000000000600052601260045260246000fd5b7f4e487b7100000000000000000000000000000000000000000000000000000000600052602160045260246000fd5b7f4e487b7100000000000000000000000000000000000000000000000000000000600052602260045260246000fd5b7f4e487b7100000000000000000000000000000000000000000000000000000000600052603260045260246000fd5b7f4e487b7100000000000000000000000000000000000000000000000000000000600052604160045260246000fd5b600080fd5b600080fd5b600080fd5b600080fd5b600080fd5b6000601f19601f8301169050919050565b7f4e6f742074686520706f6c69637920686f6c6465720000000000000000000000600082015250565b7f496e76616c696420636f76657261676520616d6f756e74000000000000000000600082015250565b7f4f776e61626c653a206e6577206f776e657220697320746865207a65726f206160008201527f6464726573730000000000000000000000000000000000000000000000000000602082015250565b7f436c61696d20616c72656164792070726f636573736564000000000000000000600082015250565b7f4d69736d61746368656420636c61696d7320616e6420617070726f76616c207360008201527f7461747573657300000000000000000000000000000000000000000000000000602082015250565b7f496e73756666696369656e74207072656d69756d207061796d656e7400000000600082015250565b7f506f6c696379206973206e6f7420616374697665000000000000000000000000600082015250565b7f4f776e61626c653a2063616c6c6572206973206e6f7420746865206f776e6572600082015250565b7f436c61696d20616d6f756e74206578636565647320636f766572616765000000600082015250565b7f5265656e7472616e637947756172643a207265656e7472616e742063616c6c00600082015250565b600381106130fa576130f9612e1d565b5b50565b61310681612c64565b811461311157600080fd5b50565b61311d81612c76565b811461312857600080fd5b50565b61313481612cb5565b811461313f57600080fd5b5056fea26469706673582212208a1666220725ddae096730a9368b8d0b7f9e58d2a455806c8f028f671a38264964736f6c63430008070033",
  "linkReferences": {},
  "deployedLinkReferences": {}
}